:0401BA00020C000033
:10017F0053A0F020B7057F1412008F20B6057F140F
:10018F0012010820B5057F0A12008F20B4E57F0AFF
:05019F0012010880DEE2
:06008F007D207C007E00D4
:100095008E088F098C0A8D0BE50B450A6061E50C0E
:1000A500704CE50D14601A14602714603424037035
:1000B5003DC2A1C2A2C2A3D2A0750C00750D0180DC
:1000C5002DC2A0C2A2C2A3D2A1750C00750D0280DB
:1000D5001DC2A0C2A1C2A3D2A2750C00750D0380DA
:1000E5000DC2A0C2A1C2A2D2A3E4F50CF50DAF09C1
:1000F500AE081201A4E50B150B709D150A809953E6
:03010500A0F02245
:060108007D207C007E005A
:10010E008E088F098C0A8D0BE50B450A605FE50C96
:10011E00704AE50D603814602614601314703DC2E9
:10012E00A0C2A2C2A3D2A1750C00750D02802DC271
:10013E00A1C2A2C2A3D2A0750C00750D01801DC272
:10014E00A0C2A1C2A2D2A3E4F50CF50D800EC2A0EE
:10015E00C2A1C2A3D2A2750C00750D03AF09AE08E1
:10016E001201A4E50B150B709F150A809B53A0F08E
:01017E00225E
:1001A400EF1FAA0670011E4A600BE4FDEDC39464C0
:0501B40050EE0D80F784
:0101B9002223
:03000000020003F8
:0C000300787FE4F6D8FD75810D02004AFC
:10000F0002017FE493A3F8E493A34003F68001F287
:10001F0008DFF48029E493A3F85407240CC8C333F2
:10002F00C4540F4420C8834004F456800146F6DFC1
:10003F00E4800B01020408102040809001BAE47E96
:10004F00019360BCA3FF543F30E509541FFEE493B6
:10005F00A360010ECF54C025E060A840B8E493A37D
:10006F00FAE493A3F8E493A3C8C582C8CAC583CAA8
:10007F00F0A3C8C582C8CAC583CADFE9DEE780BE60
:0101BE000040
:00000001FF
